S01E0000536572766F5F6D6F746F725F636F6E74726F6C6C65722E73726563C4
S11300000C942A000C943F000C943F000C943F0085
S11300100C943F000C943F000C943F000C943F0060
S11300200C943F000C943F000C943F000C943F0050
S11300300C943F000C943F000C943F000C943F0040
S11300400C943F000C943F000C943F000C943F0030
S11300500C943F0011241FBECFE5D8E0DEBFCDBF16
S113006010E0A0E6B0E0E8E2F0E102C005900D92F5
S1130070A238B107D9F70E942F030C9412080C94EC
S1130080000040E060E081E00E94C20340E061E0E3
S113009081E00E94C20340E062E081E00E94C2036A
S11300A040E063E081E00E94C20360E081E00E94DE
S11300B0010561E081E00E94010562E081E00E94A7
S11300C0010563E081E00E94010541E064E081E014
S11300D00E94C20341E065E081E00E94C20341E066
S11300E066E081E00E94C20341E067E081E00E9493
S11300F0C20341E064E081E00E94440441E065E021
S113010081E00E94440441E066E081E00E944404EE
S113011041E067E081E00E94440408956F927F9279
S11301208F929F92AF92BF92CF92DF92EF92FF9203
S11301300F931F93CF93DF93CDB7DEB7A1970FB67D
S1130140F894DEBF0FBECDBF009709F481C05C01F7
S113015081E08D8F8E8F8F8F88A394E0998F95E0A7
S11301609A8F96E09B8F97E09C8F8D8B8E8B8F8BD5
S1130170888F198A8A8B82E08B8B83E08C8B80E159
S1130180E0E6F0E0DE01119601900D928A95E1F728
S11301908FEFF501808300E058C0C02ED12CE9E137
S11301A0F0E0EC0FFD1FEC0DFD1D8080EDE1F0E0B3
S11301B0EC0FFD1FEC0DFD1D908040E0682D892D96
S11301C00E94440410E037C0E12EF12CE1E1F0E09C
S11301D0EC0FFD1FEE0DFF1D7080E5E1F0E0EC0F6C
S11301E0FD1FEE0DFF1D6080AE014F5D5F4F672D5B
S11301F0862D0E94C60489A181111CC007C0AE01CE
S11302004F5D5F4F672D862D0E94C60489A1882308
S1130210B1F3EE0CFF1CEE0CFF1C81E090E08C0FA0
S11302209D1FE80EF91EF701EC0DFD1D8081F501FF
S1130230808303C01F5F143038F241E0682D892D9C
S11302400E944404143020F00F5F043008F4A5CF5A
S1130250A1960FB6F894DEBF0FBECDBFDF91CF914C
S11302601F910F91FF90EF90DF90CF90BF90AF90D0
S11302709F908F907F906F900895CF93C82F80FDAB
S113028006C040E064E082E00E94440405C041E00E
S113029064E082E00E944404C1FD06C040E065E0E1
S11302A082E00E94440405C041E065E082E00E94CF
S11302B04404C2FD06C040E066E082E00E944404BB
S11302C005C041E066E082E00E944404C3FD06C02C
S11302D040E067E082E00E94440405C041E067E03A
S11302E082E00E944404CF91089541E062E082E0FC
S11302F00E9444048FE99FE00197F1F700C00000D9
S113030040E062E082E00E9444048FE99FE00197AC
S1130310F1F700C000000895CF93C82F41E060E0DA
S113032082E00E94440440E061E082E00E944404D0
S11303308C2F82958F700E943D010E9475018C2F35
S11303400E943D010E947501CF910895CF93C82F5B
S113035040E060E082E00E94440440E061E082E02A
S11303600E9444048C2F82958F700E943D010E944C
S113037075018C2F0E943D010E947501CF91089553
S113038041E060E082E00E94C20341E061E082E07B
S11303900E94C20341E062E082E00E94C20341E0A5
S11303A064E082E00E94C20341E065E082E00E94D2
S11303B0C20341E066E082E00E94C20341E067E0DC
S11303C082E00E94C2032FE785EB91E02150804038
S11303D09040E1F700C0000040E060E082E00E944D
S11303E0440440E061E082E00E94440482E00E9410
S11303F03D010E94750188E20E94A60120EF2A9522
S1130400F1F78FE00E94A60180EF8A95F1F781E071
S11304100E94A6018FE39FE10197F1F700C000005D
S113042086E00E94A60108950F931F93CF9300972F
S113043029F40CC00E948C01CF5F02C08C01C0E083
S1130440F801EC0FF11D80818111F4CFCF911F9140
S11304500F91089581E00E94A6018FE39FE1019727
S1130460F1F700C0000008958F929F92AF92BF925F
S1130470CF92DF92EF92FF926B017C01992354F4A7
S1130480F094E094D094C094C11CD11CE11CF11CE4
S113049081E001C080E0C114D104E104F10421F43D
S11304A080E30E948C014AC0882319F08DE20E94E7
S11304B08C0161E070E080E090E024C0DC01CB01BD
S11304C0880F991FAA1FBB1F4C015D01880C991C42
S11304D0AA1CBB1C880C991CAA1CBB1C880E991E48
S11304E0AA1EBB1EC701B6012AE030E040E050E07E
S11304F00E94F307680D791D8A1D9B1DC22ED32E01
S1130500E42EF52EC114D104E104F104B9F62AE075
S113051030E040E050E00E94D107C22ED32EE42EFA
S1130520F52E80E3860F0E948C016C2D7D2D8E2D7F
S11305309F2D613071058105910549F7FF90EF907A
S1130540DF90CF90BF90AF909F908F9008958823B5
S113055019F0813049F0089580E8860F0E94A601C1
S113056080EF8A95F1F7089580EC860F0E94A6012A
S113057080EF8A95F1F70895CF93DF93EB01FC01A7
S11305806081062E000C770B665A7F4F072E000CF5
S1130590880B990B0E94B40622EE32E943EE5CE329
S11305A00E94640720E030E040EA50E40E9499058C
S11305B0688379838A839B8320E030E048EC52E4AB
S11305C00E94640720E030E040E05FE30E94990568
S11305D00E947C06072E000C880B990B0E94B4061F
S11305E020E030E048EC52E40E940A0668837983F4
S11305F08A839B83DF91CF910895DC018C918D32A6
S113060019F05BE240E002C05DE241E090E016C018
S1130610990F392F330F330F930F920F90534F5F6E
S113062001C090E0FD01E40FF11D208130ED320F97
S11306303A3070F35D3209F491954F5FFD01E40F98
S1130640F11D80818111EDCF9B351CF4963A1CF08D
S113065003C09AE501C096EAFB0190830895CF9305
S1130660DF93CDB7DEB767970FB6F894DEBF0FBE42
S1130670CDBF0E9439050E9441000E94C00160E084
S113068081E00E94A70280E790E00E94140241E00A
S113069065E083E00E94C20319821A821B821C82D5
S11306A01D828FEF8E8310E0CE0106960E948E008D
S11306B08E818D33F1F020F48A3209F45AC03CC0A3
S11306C0833621F08F3F09F454C036C00E942A02B9
S11306D0FE01379681E1DF011D928A95E9F760E01A
S11306E081E00E94A70280E790E00E94140210E0DB
S11306F040C0BE016F5F7F4FCE0107960E94FD028E
S1130700BE016E5F7F4FCE0101960E94BC026AE07B
S113071081E00E94A7028BE790E00E9414026AE045
S113072081E00E94A7026981062E000C770B880BDA
S1130730990B0E9434021DC01131D8F4212F30E0EE
S1130740E7E0F0E0EC0FFD1FE20FF31F80832F5F63
S11307503F4FE7E0F0E0EC0FFD1FE20FF31F1082C4
S11307601F5F60E080E00E94A702CE0107960E940E
S113077014024A815B816C817D8182E390E00E9456
S11307804C0592CF843008F07EC0683008F07BC0FE
S1130790423008F078C0813019F130F08230E1F154
S11307A0833009F455C00895442319F0413069F0A9
S11307B008952AB381E090E002C0880F991F6A95DA
S11307C0E2F7809582238ABB08952AB381E090E002
S11307D002C0880F991F6A95E2F7822B8ABB08959D
S11307E0442319F0413069F0089527B381E090E083
S11307F002C0880F991F6A95E2F78095822387BB10
S1130800089527B381E090E002C0880F991F6A958C
S1130810E2F7822B87BB0895442319F0413069F035
S1130820089524B381E090E002C0880F991F6A956F
S1130830E2F78095822384BB089524B381E090E09D
S113084002C0880F991F6A95E2F7822B84BB089532
S1130850442319F0413069F0089521B381E090E018
S113086002C0880F991F6A95E2F78095822381BBA5
S1130870089521B381E090E002C0880F991F6A9522
S1130880E2F7822B81BB0895843008F07EC0683083
S113089008F07BC0423008F078C0813019F130F0A4
S11308A08230E1F1833009F455C00895442319F0EE
S11308B0413069F008952BB381E090E002C0880FC5
S11308C0991F6A95E2F7809582238BBB08952BB319
S11308D081E090E002C0880F991F6A95E2F7822BAD
S11308E08BBB0895442319F0413069F0089528B36F
S11308F081E090E002C0880F991F6A95E2F7809525
S1130900822388BB089528B381E090E002C0880F59
S1130910991F6A95E2F7822B88BB0895442319F046
S1130920413069F0089525B381E090E002C0880F5A
S1130930991F6A95E2F78095822385BB089525B3B4
S113094081E090E002C0880F991F6A95E2F7822B3C
S113095085BB0895442319F0413069F0089522B30A
S113096081E090E002C0880F991F6A95E2F78095B4
S1130970822382BB089522B381E090E002C0880FF5
S1130980991F6A95E2F7822B82BB08958430C0F5E3
S11309906830B0F54115510599F1813089F028F09E
S11309A08230C9F0833011F1089589B390E002C018
S11309B0959587956A95E2F78170FA018083089589
S11309C086B390E002C0959587956A95E2F78170A9
S11309D0FA018083089583B390E002C095958795CA
S11309E06A95E2F78170FA018083089580B390E0FC
S11309F002C0959587956A95E2F78170FA01808324
S1130A0008958430A8F5683098F5813089F028F08D
S1130A108230C9F0833011F108952BB381E090E066
S1130A2002C0880F991F6A95E2F7822B8BBB089549
S1130A3028B381E090E002C0880F991F6A95E2F71D
S1130A40822B88BB089525B381E090E002C0880F13
S1130A50991F6A95E2F7822B85BB089522B381E042
S1130A6090E002C0880F991F6A95E2F7822B82BB3F
S1130A7008958FB58E7F8FBD8FB582608FBD8EB583
S1130A8088608EBD8EB580618EBD8FB58F7B8FBD26
S1130A908FB580688FBD0895CF92DF92EF92FF9259
S1130AA0CF93DF93EC016A017B0120E030E048EC56
S1130AB052E4C701B6010E940506181694F19E017E
S1130AC040E050E060E970ED83E090E00E94D107DF
S1130AD02150310937BD26BD66B577B56F5F7F4FAD
S1130AE080E090E00E94B206A70196010E9464078C
S1130AF020E030E048EC52E40E940A0620E030E0B6
S1130B0040E85FE30E9498050E9483067BBD6ABDAE
S1130B108EB581608EBD8EB582608EBD8EB58B7FA5
S1130B208EBDDF91CF91FF90EF90DF90CF9008952D
S1130B305058BB27AA270E94B0050C942A070E948C
S1130B401C0738F00E94230720F039F49F3F19F462
S1130B5026F40C9419070EF4E095E7FB0C941307A4
S1130B60E92F0E943B0758F3BA17620773078407FB
S1130B70950720F079F4A6F50C945D070EF4E09542
S1130B800B2EBA2FA02D0B01B90190010C01CA0143
S1130B90A0011124FF27591B99F0593F50F4503EEE
S1130BA068F11A16F040A22F232F342F4427585FE0
S1130BB0F3CF469537952795A795F0405395C9F7F8
S1130BC07EF41F16BA0B620B730B840BBAF09150B0
S1130BD0A1F0FF0FBB1F661F771F881FC2F70EC04F
S1130BE0BA0F621F731F841F48F487957795679522
S1130BF0B795F7959E3F08F0B0CF9395880F08F00E
S1130C009927EE0F9795879508950E94EF0608F4AB
S1130C1081E008950E941E060C942A070E9423076F
S1130C2058F00E941C0740F029F45F3F29F00C940F
S1130C30130751110C945E070C9419070E943B078B
S1130C4068F39923B1F3552391F3951B550BBB27F7
S1130C50AA2762177307840738F09F5F5F4F220F3C
S1130C60331F441FAA1FA9F335D00E2E3AF0E0E833
S1130C7032D091505040E695001CCAF72BD0FE2F7D
S1130C8029D0660F771F881FBB1F26173707480711
S1130C90AB07B0E809F0BB0B802DBF01FF279358C9
S1130CA05F4F3AF09E3F510578F00C9413070C9473
S1130CB05E075F3FE4F3983ED4F386957795679596
S1130CC0B795F7959F5FC9F7880F911D96958795FE
S1130CD097F90895E1E0660F771F881FBB1F62171D
S1130CE073078407BA0720F0621B730B840BBA0BDB
S1130CF0EE1F88F7E09508950E9483066894B11169
S1130D000C945E0708950E94430788F09F5798F05B
S1130D10B92F9927B751B0F0E1F0660F771F881FFC
S1130D20991F1AF0BA95C9F714C0B13091F00E9416
S1130D305D07B1E008950C945D07672F782F88272D
S1130D40B85F39F0B93FCCF3869577956795B3953D
S1130D50D9F73EF490958095709561957F4F8F4FAC
S1130D609F4F0895E89409C097FB3EF490958095B1
S1130D70709561957F4F8F4F9F4F9923A9F0F92F5D
S1130D8096E9BB279395F695879577956795B795DB
S1130D90F111F8CFFAF4BB0F11F460FF1BC06F5FC1
S1130DA07F4F8F4F9F4F16C0882311F096E911C0D3
S1130DB0772321F09EE8872F762F05C0662371F0F4
S1130DC096E8862F70E060E02AF09A95660F771F08
S1130DD0881FDAF7880F9695879597F90895990FE4
S1130DE00008550FAA0BE0E8FEEF16161706E807F1
S1130DF0F907C0F012161306E407F50798F0621B12
S1130E00730B840B950B39F40A2661F0232B242BE6
S1130E10252B21F408950A2609F4A140A6958FEF05
S1130E20811D811D089597F99F6780E870E060E057
S1130E3008959FEF80EC089500240A94161617066F
S1130E4018060906089500240A94121613061406B7
S1130E5005060895092E0394000C11F4882352F01A
S1130E60BB0F40F4BF2B11F460FF04C06F5F7F4FD2
S1130E708F4F9F4F089557FD9058440F551F59F0B9
S1130E805F3F71F04795880F97FB991F61F09F3F73
S1130E9079F087950895121613061406551FF2CF9C
S1130EA04695F1DF08C0161617061806991FF1CFEC
S1130EB086957105610508940895E894BB27662713
S1130EC07727CB0197F908950E9477070C942A0796
S1130ED00E941C0738F00E94230720F0952311F08C
S1130EE00C9413070C94190711240C945E070E94A8
S1130EF03B0770F3959FC1F3950F50E0551F629F18
S1130F00F001729FBB27F00DB11D639FAA27F00D5E
S1130F10B11DAA1F649F6627B00DA11D661F829F85
S1130F202227B00DA11D621F739FB00DA11D621F6A
S1130F30839FA00D611D221F749F3327A00D611D87
S1130F40231F849F600D211D822F762F6A2F112469
S1130F509F5750409AF0F1F088234AF0EE0FFF1F9C
S1130F60BB1F661F771F881F91505040A9F79E3FF3
S1130F70510580F00C9413070C945E075F3FE4F373
S1130F80983ED4F3869577956795B795F795E79549
S1130F909F5FC1F7FE2B880F911D9695879597F952
S1130FA00895A1E21A2EAA1BBB1BFD010DC0AA1FA6
S1130FB0BB1FEE1FFF1FA217B307E407F50720F0BE
S1130FC0A21BB30BE40BF50B661F771F881F991F39
S1130FD01A9469F760957095809590959B01AC0182
S1130FE0BD01CF010895052E97FB1EF400940E94C5
S1130FF00A0857FD07D00E94D10707FC03D04EF41E
S11310000C940A0850954095309521953F4F4F4FC9
S11310105F4F089590958095709561957F4F8F4FA0
S10B10209F4F0895F894FFCFDF
S11310283738392A3435362A3132332D63303D2A5C
S1131038416E676C65204E6F773A0020202020208F
S10510480000A2
S9030000FC
